{
    "_format": "hh-sol-artifact-1",
    "contractName": "Storage",
    "sourceName": "contracts/Storage.sol",
    "abi": [
        {
            "inputs": [
                {
                    "internalType": "uint256",
                    "name": "price",
                    "type": "uint256"
                }
            ],
            "stateMutability": "payable",
            "type": "constructor"
        },
        {
            "anonymous": false,
            "inputs": [
                {
                    "indexed": false,
                    "internalType": "address",
                    "name": "_from",
                    "type": "address"
                },
                {
                    "indexed": false,
                    "internalType": "address",
                    "name": "_to",
                    "type": "address"
                },
                {
                    "indexed": false,
                    "internalType": "uint256",
                    "name": "_value",
                    "type": "uint256"
                }
            ],
            "name": "pay_to_owner",
            "type": "event"
        },
        {
            "anonymous": false,
            "inputs": [
                {
                    "indexed": false,
                    "internalType": "address",
                    "name": "_from",
                    "type": "address"
                },
                {
                    "indexed": false,
                    "internalType": "address",
                    "name": "_to",
                    "type": "address"
                },
                {
                    "indexed": false,
                    "internalType": "uint256",
                    "name": "_value",
                    "type": "uint256"
                },
                {
                    "indexed": false,
                    "internalType": "bytes32",
                    "name": "proofKey",
                    "type": "bytes32"
                }
            ],
            "name": "payment_receive",
            "type": "event"
        },
        {
            "anonymous": false,
            "inputs": [
                {
                    "indexed": false,
                    "internalType": "address",
                    "name": "_from",
                    "type": "address"
                },
                {
                    "indexed": false,
                    "internalType": "address",
                    "name": "_to",
                    "type": "address"
                },
                {
                    "indexed": false,
                    "internalType": "uint256",
                    "name": "_value",
                    "type": "uint256"
                },
                {
                    "indexed": false,
                    "internalType": "bytes32",
                    "name": "proofKey",
                    "type": "bytes32"
                }
            ],
            "name": "penalty_receive",
            "type": "event"
        },
        {
            "anonymous": false,
            "inputs": [
                {
                    "indexed": false,
                    "internalType": "address",
                    "name": "client",
                    "type": "address"
                },
                {
                    "indexed": false,
                    "internalType": "uint256",
                    "name": "time",
                    "type": "uint256"
                },
                {
                    "indexed": false,
                    "internalType": "uint256",
                    "name": "payment",
                    "type": "uint256"
                },
                {
                    "indexed": false,
                    "internalType": "uint256",
                    "name": "status",
                    "type": "uint256"
                },
                {
                    "indexed": false,
                    "internalType": "bytes32",
                    "name": "key",
                    "type": "bytes32"
                },
                {
                    "indexed": false,
                    "internalType": "bytes32",
                    "name": "proofKey",
                    "type": "bytes32"
                }
            ],
            "name": "submit_proof",
            "type": "event"
        },
        {
            "anonymous": false,
            "inputs": [
                {
                    "indexed": false,
                    "internalType": "address",
                    "name": "client",
                    "type": "address"
                }
            ],
            "name": "user_store",
            "type": "event"
        },
        {
            "inputs": [
                {
                    "internalType": "address",
                    "name": "",
                    "type": "address"
                },
                {
                    "internalType": "uint256",
                    "name": "",
                    "type": "uint256"
                }
            ],
            "name": "clientKeys",
            "outputs": [
                {
                    "internalType": "bytes32",
                    "name": "",
                    "type": "bytes32"
                }
            ],
            "stateMutability": "view",
            "type": "function"
        },
        {
            "inputs": [
                {
                    "internalType": "uint256",
                    "name": "",
                    "type": "uint256"
                }
            ],
            "name": "clientList",
            "outputs": [
                {
                    "internalType": "address",
                    "name": "",
                    "type": "address"
                }
            ],
            "stateMutability": "view",
            "type": "function"
        },
        {
            "inputs": [],
            "name": "contractAddress",
            "outputs": [
                {
                    "internalType": "address",
                    "name": "",
                    "type": "address"
                }
            ],
            "stateMutability": "view",
            "type": "function"
        },
        {
            "inputs": [
                {
                    "internalType": "address",
                    "name": "_client",
                    "type": "address"
                },
                {
                    "internalType": "bytes32",
                    "name": "key",
                    "type": "bytes32"
                }
            ],
            "name": "forceFail",
            "outputs": [],
            "stateMutability": "nonpayable",
            "type": "function"
        },
        {
            "inputs": [],
            "name": "getAllStore",
            "outputs": [
                {
                    "components": [
                        {
                            "internalType": "address",
                            "name": "client",
                            "type": "address"
                        },
                        {
                            "internalType": "bytes32",
                            "name": "key",
                            "type": "bytes32"
                        },
                        {
                            "internalType": "uint256",
                            "name": "size",
                            "type": "uint256"
                        },
                        {
                            "internalType": "uint256",
                            "name": "total_price",
                            "type": "uint256"
                        },
                        {
                            "internalType": "uint256",
                            "name": "time",
                            "type": "uint256"
                        },
                        {
                            "internalType": "uint256",
                            "name": "duration",
                            "type": "uint256"
                        },
                        {
                            "internalType": "uint256",
                            "name": "expiry_time",
                            "type": "uint256"
                        },
                        {
                            "internalType": "bool",
                            "name": "done",
                            "type": "bool"
                        }
                    ],
                    "internalType": "struct Storage.Store[]",
                    "name": "",
                    "type": "tuple[]"
                }
            ],
            "stateMutability": "view",
            "type": "function"
        },
        {
            "inputs": [
                {
                    "internalType": "address",
                    "name": "client",
                    "type": "address"
                }
            ],
            "name": "getClientKeys",
            "outputs": [
                {
                    "internalType": "bytes32[]",
                    "name": "",
                    "type": "bytes32[]"
                }
            ],
            "stateMutability": "view",
            "type": "function"
        },
        {
            "inputs": [],
            "name": "getClientList",
            "outputs": [
                {
                    "internalType": "address[]",
                    "name": "",
                    "type": "address[]"
                }
            ],
            "stateMutability": "view",
            "type": "function"
        },
        {
            "inputs": [],
            "name": "getContractBalance",
            "outputs": [
                {
                    "internalType": "uint256",
                    "name": "",
                    "type": "uint256"
                }
            ],
            "stateMutability": "view",
            "type": "function"
        },
        {
            "inputs": [],
            "name": "getKeyList",
            "outputs": [
                {
                    "internalType": "bytes32[]",
                    "name": "",
                    "type": "bytes32[]"
                }
            ],
            "stateMutability": "view",
            "type": "function"
        },
        {
            "inputs": [],
            "name": "getMyKeys",
            "outputs": [
                {
                    "internalType": "bytes32[]",
                    "name": "",
                    "type": "bytes32[]"
                }
            ],
            "stateMutability": "view",
            "type": "function"
        },
        {
            "inputs": [],
            "name": "getPricePerBytes",
            "outputs": [
                {
                    "internalType": "uint256",
                    "name": "",
                    "type": "uint256"
                }
            ],
            "stateMutability": "view",
            "type": "function"
        },
        {
            "inputs": [
                {
                    "internalType": "bytes32",
                    "name": "key",
                    "type": "bytes32"
                }
            ],
            "name": "getStore",
            "outputs": [
                {
                    "components": [
                        {
                            "internalType": "address",
                            "name": "client",
                            "type": "address"
                        },
                        {
                            "internalType": "bytes32",
                            "name": "key",
                            "type": "bytes32"
                        },
                        {
                            "internalType": "uint256",
                            "name": "size",
                            "type": "uint256"
                        },
                        {
                            "internalType": "uint256",
                            "name": "total_price",
                            "type": "uint256"
                        },
                        {
                            "internalType": "uint256",
                            "name": "time",
                            "type": "uint256"
                        },
                        {
                            "internalType": "uint256",
                            "name": "duration",
                            "type": "uint256"
                        },
                        {
                            "internalType": "uint256",
                            "name": "expiry_time",
                            "type": "uint256"
                        },
                        {
                            "internalType": "bool",
                            "name": "done",
                            "type": "bool"
                        }
                    ],
                    "internalType": "struct Storage.Store",
                    "name": "",
                    "type": "tuple"
                }
            ],
            "stateMutability": "view",
            "type": "function"
        },
        {
            "inputs": [],
            "name": "owner",
            "outputs": [
                {
                    "internalType": "address payable",
                    "name": "",
                    "type": "address"
                }
            ],
            "stateMutability": "view",
            "type": "function"
        },
        {
            "inputs": [
                {
                    "internalType": "uint256",
                    "name": "value",
                    "type": "uint256"
                }
            ],
            "name": "payToOwner",
            "outputs": [],
            "stateMutability": "nonpayable",
            "type": "function"
        },
        {
            "inputs": [
                {
                    "internalType": "bytes32",
                    "name": "key",
                    "type": "bytes32"
                },
                {
                    "internalType": "bytes32",
                    "name": "proofKey",
                    "type": "bytes32"
                }
            ],
            "name": "payment",
            "outputs": [],
            "stateMutability": "payable",
            "type": "function"
        },
        {
            "inputs": [
                {
                    "internalType": "address",
                    "name": "_to",
                    "type": "address"
                },
                {
                    "internalType": "uint256",
                    "name": "value",
                    "type": "uint256"
                },
                {
                    "internalType": "bytes32",
                    "name": "proofKey",
                    "type": "bytes32"
                }
            ],
            "name": "penalty",
            "outputs": [],
            "stateMutability": "nonpayable",
            "type": "function"
        },
        {
            "inputs": [],
            "name": "pricePerByte",
            "outputs": [
                {
                    "internalType": "uint256",
                    "name": "",
                    "type": "uint256"
                }
            ],
            "stateMutability": "view",
            "type": "function"
        },
        {
            "inputs": [
                {
                    "internalType": "uint256",
                    "name": "",
                    "type": "uint256"
                }
            ],
            "name": "storeKeys",
            "outputs": [
                {
                    "internalType": "bytes32",
                    "name": "",
                    "type": "bytes32"
                }
            ],
            "stateMutability": "view",
            "type": "function"
        },
        {
            "inputs": [
                {
                    "internalType": "bytes32",
                    "name": "",
                    "type": "bytes32"
                }
            ],
            "name": "stores",
            "outputs": [
                {
                    "internalType": "address",
                    "name": "client",
                    "type": "address"
                },
                {
                    "internalType": "bytes32",
                    "name": "key",
                    "type": "bytes32"
                },
                {
                    "internalType": "uint256",
                    "name": "size",
                    "type": "uint256"
                },
                {
                    "internalType": "uint256",
                    "name": "total_price",
                    "type": "uint256"
                },
                {
                    "internalType": "uint256",
                    "name": "time",
                    "type": "uint256"
                },
                {
                    "internalType": "uint256",
                    "name": "duration",
                    "type": "uint256"
                },
                {
                    "internalType": "uint256",
                    "name": "expiry_time",
                    "type": "uint256"
                },
                {
                    "internalType": "bool",
                    "name": "done",
                    "type": "bool"
                }
            ],
            "stateMutability": "view",
            "type": "function"
        },
        {
            "inputs": [
                {
                    "internalType": "address",
                    "name": "_client",
                    "type": "address"
                },
                {
                    "internalType": "bytes32",
                    "name": "key",
                    "type": "bytes32"
                }
            ],
            "name": "submitProof",
            "outputs": [],
            "stateMutability": "nonpayable",
            "type": "function"
        },
        {
            "inputs": [
                {
                    "internalType": "uint256",
                    "name": "_size",
                    "type": "uint256"
                },
                {
                    "internalType": "uint256",
                    "name": "_duration",
                    "type": "uint256"
                }
            ],
            "name": "userStore",
            "outputs": [
                {
                    "internalType": "bytes32",
                    "name": "",
                    "type": "bytes32"
                }
            ],
            "stateMutability": "nonpayable",
            "type": "function"
        }
    ],
    "bytecode": "0x6080604052671bc16d674ec8000060035560405162002d6b38038062002d6b833981810160405281019062000035919062000104565b336000806101000a81548173ffffffffffffffffffffffffffffffffffffffff021916908373ffffffffffffffffffffffffffffffffffffffff16021790555030600260006101000a81548173ffffffffffffffffffffffffffffffffffffffff021916908373ffffffffffffffffffffffffffffffffffffffff160217905550806001819055505062000136565b600080fd5b6000819050919050565b620000de81620000c9565b8114620000ea57600080fd5b50565b600081519050620000fe81620000d3565b92915050565b6000602082840312156200011d576200011c620000c4565b5b60006200012d84828501620000ed565b91505092915050565b612c2580620001466000396000f3fe60806040526004361061012a5760003560e01c80639daf4ca6116100ab578063e7532e9f1161006f578063e7532e9f146103da578063eab3c92d14610417578063eff2eba714610442578063f368e15c1461047f578063f68fcccb146104bc578063f6b4dfb4146104f95761012a565b80639daf4ca6146103025780639e776fd71461031e578063bf36da651461035b578063d644f76714610386578063d8dfeed8146103b15761012a565b80636f9fb98a116100f25780636f9fb98a1461022d578063763c3011146102585780638444a3f4146102815780638da5cb5b146102ac57806395adb31e146102d75761012a565b80631935d7a61461012f5780632b4f594814610158578063407ac4b21461019c5780636592f99a146101c55780636a2fe7a5146101f0575b600080fd5b34801561013b57600080fd5b5061015660048036038101906101519190611bb8565b610524565b005b34801561016457600080fd5b5061017f600480360381019061017a9190611c0b565b61062e565b604051610193989796959493929190611c80565b60405180910390f35b3480156101a857600080fd5b506101c360048036038101906101be9190611cfe565b6106a3565b005b3480156101d157600080fd5b506101da610812565b6040516101e79190611eb9565b60405180910390f35b3480156101fc57600080fd5b5061021760048036038101906102129190611cfe565b610a1b565b6040516102249190611edb565b60405180910390f35b34801561023957600080fd5b50610242610a5a565b60405161024f9190611ef6565b60405180910390f35b34801561026457600080fd5b5061027f600480360381019061027a9190611f11565b610a9b565b005b34801561028d57600080fd5b50610296610e1a565b6040516102a39190611ef6565b60405180910390f35b3480156102b857600080fd5b506102c1610e24565b6040516102ce9190611f72565b60405180910390f35b3480156102e357600080fd5b506102ec610e48565b6040516102f9919061203c565b60405180910390f35b61031c6004803603810190610317919061205e565b610edd565b005b34801561032a57600080fd5b506103456004803603810190610340919061209e565b610fc4565b60405161035291906120de565b60405180910390f35b34801561036757600080fd5b50610370610ff5565b60405161037d9190611ef6565b60405180910390f35b34801561039257600080fd5b5061039b610ffb565b6040516103a891906121a8565b60405180910390f35b3480156103bd57600080fd5b506103d860048036038101906103d39190611f11565b61108f565b005b3480156103e657600080fd5b5061040160048036038101906103fc91906121ca565b6113b5565b60405161040e91906120de565b60405180910390f35b34801561042357600080fd5b5061042c61171a565b604051610439919061203c565b60405180910390f35b34801561044e57600080fd5b506104696004803603810190610464919061220a565b611778565b604051610476919061203c565b60405180910390f35b34801561048b57600080fd5b506104a660048036038101906104a19190611c0b565b61180f565b6040516104b391906122d9565b60405180910390f35b3480156104c857600080fd5b506104e360048036038101906104de9190611cfe565b6118f0565b6040516104f091906120de565b60405180910390f35b34801561050557600080fd5b5061050e611914565b60405161051b9190611edb565b60405180910390f35b600260009054906101000a900473ffffffffffffffffffffffffffffffffffffffff1673ffffffffffffffffffffffffffffffffffffffff1631821061059f576040517f08c379a000000000000000000000000000000000000000000000000000000000815260040161059690612378565b60405180910390fd5b60008390508073ffffffffffffffffffffffffffffffffffffffff166108fc849081150290604051600060405180830381858888f193505050501580156105ea573d6000803e3d6000fd5b507f9c40bb5a791f1145e93343e3093a621486099bef46bb1e6d9b4b6e5f9e2d1417308585856040516106209493929190612398565b60405180910390a150505050565b60046020528060005260406000206000915090508060000160009054906101000a900473ffffffffffffffffffffffffffffffffffffffff16908060010154908060020154908060030154908060040154908060050154908060060154908060070160009054906101000a900460ff16905088565b60035481600260009054906101000a900473ffffffffffffffffffffffffffffffffffffffff1673ffffffffffffffffffffffffffffffffffffffff16316106eb919061240c565b1161072b576040517f08c379a00000000000000000000000000000000000000000000000000000000081526004016107229061248c565b60405180910390fd5b60008054906101000a900473ffffffffffffffffffffffffffffffffffffffff1673ffffffffffffffffffffffffffffffffffffffff166108fc829081150290604051600060405180830381858888f19350505050158015610791573d6000803e3d6000fd5b507f59aa0f2ac837d91527e486b593e262a7c7d13698c0e27ccc60bf48d03b77e38e600260009054906101000a900473ffffffffffffffffffffffffffffffffffffffff1660008054906101000a900473ffffffffffffffffffffffffffffffffffffffff16836040516108079392919061250b565b60405180910390a150565b6060600060068054905067ffffffffffffffff81111561083557610834612542565b5b60405190808252806020026020018201604052801561086e57816020015b61085b611a89565b8152602001906001900390816108535790505b50905060005b600680549050811015610a13576000600460006006848154811061089b5761089a612571565b5b90600052602060002001548152602001908152602001600020604051806101000160405290816000820160009054906101000a900473ffffffffffffffffffffffffffffffffffffffff1673ffffffffffffffffffffffffffffffffffffffff1673ffffffffffffffffffffffffffffffffffffffff1681526020016001820154815260200160028201548152602001600382015481526020016004820154815260200160058201548152602001600682015481526020016007820160009054906101000a900460ff1615151515815250509050604051806101000160405280826000015173ffffffffffffffffffffffffffffffffffffffff168152602001826020015181526020018260400151815260200182606001518152602001826080015181526020018260a0015181526020018260c0015181526020018260e0015115158152508383815181106109f4576109f3612571565b5b6020026020010181905250508080610a0b906125a0565b915050610874565b508091505090565b60078181548110610a2b57600080fd5b906000526020600020016000915054906101000a900473ffffffffffffffffffffffffffffffffffffffff1681565b6000600260009054906101000a900473ffffffffffffffffffffffffffffffffffffffff1673ffffffffffffffffffffffffffffffffffffffff1631905090565b6004600082815260200190815260200160002060070160009054906101000a900460ff1615610aff576040517f08c379a0000000000000000000000000000000000000000000000000000000008152600401610af690612634565b60405180910390fd5b6004600082815260200190815260200160002060060154600460008381526020019081526020016000206004015410610b6d576040517f08c379a0000000000000000000000000000000000000000000000000000000008152600401610b64906126c6565b60405180910390fd5b600060046000838152602001908152602001600020600601549050600042821015610bd657600460008481526020019081526020016000206004015482610bb4919061240c565b9050816004600085815260200190815260200160002060040181905550610c16565b600460008481526020019081526020016000206004015442610bf8919061240c565b90504260046000858152602001908152602001600020600401819055505b6000816004600086815260200190815260200160002060030154610c3a91906126e6565b905081600460008681526020019081526020016000206003015482610c5f919061276f565b14610c9f576040517f08c379a0000000000000000000000000000000000000000000000000000000008152600401610c96906127ec565b60405180910390fd5b6000610d7560046000878152602001908152602001600020604051806101000160405290816000820160009054906101000a900473ffffffffffffffffffffffffffffffffffffffff1673ffffffffffffffffffffffffffffffffffffffff1673ffffffffffffffffffffffffffffffffffffffff1681526020016001820154815260200160028201548152602001600382015481526020016004820154815260200160058201548152602001600682015481526020016007820160009054906101000a900460ff16151515158152505061193a565b9050600a610d8286611987565b1015610dcf577fdd850725252b1e367b57086676673865b0a8e1957fcbde172bc7dba4c92f29cd86848460028986604051610dc296959493929190612847565b60405180910390a1610e12565b7fdd850725252b1e367b57086676673865b0a8e1957fcbde172bc7dba4c92f29cd86848460018986604051610e09969594939291906128e3565b60405180910390a15b505050505050565b6000600154905090565b60008054906101000a900473ffffffffffffffffffffffffffffffffffffffff1681565b6060600560003373ffffffffffffffffffffffffffffffffffffffff1673ffffffffffffffffffffffffffffffffffffffff168152602001908152602001600020805480602002602001604051908101604052809291908181526020018280548015610ed357602002820191906000526020600020905b815481526020019060010190808311610ebf575b5050505050905090565b60003411610f20576040517f08c379a0000000000000000000000000000000000000000000000000000000008152600401610f17906129b6565b60405180910390fd5b6004600083815260200190815260200160002060040154600460008481526020019081526020016000206006015403610f835760016004600084815260200190815260200160002060070160006101000a81548160ff0219169083151502179055505b7f2e70de76dd048a4ab68e53479d6a4b4698997687944adb745c52e9146a615b1833303484604051610fb89493929190612398565b60405180910390a15050565b60056020528160005260406000208181548110610fe057600080fd5b90600052602060002001600091509150505481565b60015481565b60606000600780548060200260200160405190810160405280929190818152602001828054801561108157602002820191906000526020600020905b8160009054906101000a900473ffffffffffffffffffffffffffffffffffffffff1673ffffffffffffffffffffffffffffffffffffffff1681526020019060010190808311611037575b505050505090508091505090565b6004600082815260200190815260200160002060070160009054906101000a900460ff16156110f3576040517f08c379a00000000000000000000000000000000000000000000000000000000081526004016110ea90612634565b60405180910390fd5b6004600082815260200190815260200160002060060154600460008381526020019081526020016000206004015410611161576040517f08c379a0000000000000000000000000000000000000000000000000000000008152600401611158906126c6565b60405180910390fd5b6000600460008381526020019081526020016000206006015490506000428210156111ca576004600084815260200190815260200160002060040154826111a8919061240c565b905081600460008581526020019081526020016000206004018190555061120a565b6004600084815260200190815260200160002060040154426111ec919061240c565b90504260046000858152602001908152602001600020600401819055505b600081600460008681526020019081526020016000206003015461122e91906126e6565b905081600460008681526020019081526020016000206003015482611253919061276f565b14611293576040517f08c379a000000000000000000000000000000000000000000000000000000000815260040161128a906127ec565b60405180910390fd5b600061136960046000878152602001908152602001600020604051806101000160405290816000820160009054906101000a900473ffffffffffffffffffffffffffffffffffffffff1673ffffffffffffffffffffffffffffffffffffffff1673ffffffffffffffffffffffffffffffffffffffff1681526020016001820154815260200160028201548152602001600382015481526020016004820154815260200160058201548152602001600682015481526020016007820160009054906101000a900460ff16151515158152505061193a565b90507fdd850725252b1e367b57086676673865b0a8e1957fcbde172bc7dba4c92f29cd868484600289866040516113a596959493929190612847565b60405180910390a1505050505050565b600080600154846113c691906126e6565b905060015484826113d7919061276f565b14611417576040517f08c379a000000000000000000000000000000000000000000000000000000000815260040161140e906127ec565b60405180910390fd5b60008054906101000a900473ffffffffffffffffffffffffffffffffffffffff1673ffffffffffffffffffffffffffffffffffffffff163373ffffffffffffffffffffffffffffffffffffffff16036114a5576040517f08c379a000000000000000000000000000000000000000000000000000000000815260040161149c90612a22565b60405180910390fd5b6000603c846114b491906126e6565b426114bf9190612a42565b90507f104eef986d218ef1c5bec4b742b713586b3fabd5806b8e8feaaff2a1c2019760336040516114f09190611edb565b60405180910390a160006115026119ca565b90506006819080600181540180825580915050600190039060005260206000200160009091909190915055600560003373ffffffffffffffffffffffffffffffffffffffff1673ffffffffffffffffffffffffffffffffffffffff1681526020019081526020016000208190806001815401808255809150506001900390600052602060002001600090919091909150556007339080600181540180825580915050600190039060005260206000200160009091909190916101000a81548173ffffffffffffffffffffffffffffffffffffffff021916908373ffffffffffffffffffffffffffffffffffffffff1602179055506040518061010001604052803373ffffffffffffffffffffffffffffffffffffffff168152602001828152602001878152602001848152602001428152602001603c8761164391906126e6565b8152602001838152602001600015158152506004600083815260200190815260200160002060008201518160000160006101000a81548173ffffffffffffffffffffffffffffffffffffffff021916908373ffffffffffffffffffffffffffffffffffffffff1602179055506020820151816001015560408201518160020155606082015181600301556080820151816004015560a0820151816005015560c0820151816006015560e08201518160070160006101000a81548160ff02191690831515021790555090505080935050505092915050565b60606000600680548060200260200160405190810160405280929190818152602001828054801561176a57602002820191906000526020600020905b815481526020019060010190808311611756575b505050505090508091505090565b6060600560008373ffffffffffffffffffffffffffffffffffffffff1673ffffffffffffffffffffffffffffffffffffffff16815260200190815260200160002080548060200260200160405190810160405280929190818152602001828054801561180357602002820191906000526020600020905b8154815260200190600101908083116117ef575b50505050509050919050565b611817611a89565b600060046000848152602001908152602001600020604051806101000160405290816000820160009054906101000a900473ffffffffffffffffffffffffffffffffffffffff1673ffffffffffffffffffffffffffffffffffffffff1673ffffffffffffffffffffffffffffffffffffffff1681526020016001820154815260200160028201548152602001600382015481526020016004820154815260200160058201548152602001600682015481526020016007820160009054906101000a900460ff161515151581525050905080915050919050565b6006818154811061190057600080fd5b906000526020600020016000915090505481565b600260009054906101000a900473ffffffffffffffffffffffffffffffffffffffff1681565b600080428360200151846000015185608001518660600151604051602001611966959493929190612b22565b60405160208183030381529060405280519060200120905080915050919050565b600060644233846040516020016119a093929190612b81565b6040516020818303038152906040528051906020012060001c6119c39190612bbe565b9050919050565b60008042336001436119dc919061240c565b406040516020016119ef93929190612b81565b604051602081830303815290604052805190602001209050600073ffffffffffffffffffffffffffffffffffffffff166004600083815260200190815260200160002060000160009054906101000a900473ffffffffffffffffffffffffffffffffffffffff1673ffffffffffffffffffffffffffffffffffffffff1614611a8157611a796119ca565b915050611a86565b809150505b90565b604051806101000160405280600073ffffffffffffffffffffffffffffffffffffffff1681526020016000801916815260200160008152602001600081526020016000815260200160008152602001600081526020016000151581525090565b600080fd5b600073ffffffffffffffffffffffffffffffffffffffff82169050919050565b6000611b1982611aee565b9050919050565b611b2981611b0e565b8114611b3457600080fd5b50565b600081359050611b4681611b20565b92915050565b6000819050919050565b611b5f81611b4c565b8114611b6a57600080fd5b50565b600081359050611b7c81611b56565b92915050565b6000819050919050565b611b9581611b82565b8114611ba057600080fd5b50565b600081359050611bb281611b8c565b92915050565b600080600060608486031215611bd157611bd0611ae9565b5b6000611bdf86828701611b37565b9350506020611bf086828701611b6d565b9250506040611c0186828701611ba3565b9150509250925092565b600060208284031215611c2157611c20611ae9565b5b6000611c2f84828501611ba3565b91505092915050565b611c4181611b0e565b82525050565b611c5081611b82565b82525050565b611c5f81611b4c565b82525050565b60008115159050919050565b611c7a81611c65565b82525050565b600061010082019050611c96600083018b611c38565b611ca3602083018a611c47565b611cb06040830189611c56565b611cbd6060830188611c56565b611cca6080830187611c56565b611cd760a0830186611c56565b611ce460c0830185611c56565b611cf160e0830184611c71565b9998505050505050505050565b600060208284031215611d1457611d13611ae9565b5b6000611d2284828501611b6d565b91505092915050565b600081519050919050565b600082825260208201905092915050565b6000819050602082019050919050565b611d6081611b0e565b82525050565b611d6f81611b82565b82525050565b611d7e81611b4c565b82525050565b611d8d81611c65565b82525050565b61010082016000820151611daa6000850182611d57565b506020820151611dbd6020850182611d66565b506040820151611dd06040850182611d75565b506060820151611de36060850182611d75565b506080820151611df66080850182611d75565b5060a0820151611e0960a0850182611d75565b5060c0820151611e1c60c0850182611d75565b5060e0820151611e2f60e0850182611d84565b50505050565b6000611e418383611d93565b6101008301905092915050565b6000602082019050919050565b6000611e6682611d2b565b611e708185611d36565b9350611e7b83611d47565b8060005b83811015611eac578151611e938882611e35565b9750611e9e83611e4e565b925050600181019050611e7f565b5085935050505092915050565b60006020820190508181036000830152611ed38184611e5b565b905092915050565b6000602082019050611ef06000830184611c38565b92915050565b6000602082019050611f0b6000830184611c56565b92915050565b60008060408385031215611f2857611f27611ae9565b5b6000611f3685828601611b37565b9250506020611f4785828601611ba3565b9150509250929050565b6000611f5c82611aee565b9050919050565b611f6c81611f51565b82525050565b6000602082019050611f876000830184611f63565b92915050565b600081519050919050565b600082825260208201905092915050565b6000819050602082019050919050565b6000611fc58383611d66565b60208301905092915050565b6000602082019050919050565b6000611fe982611f8d565b611ff38185611f98565b9350611ffe83611fa9565b8060005b8381101561202f5781516120168882611fb9565b975061202183611fd1565b925050600181019050612002565b5085935050505092915050565b600060208201905081810360008301526120568184611fde565b905092915050565b6000806040838503121561207557612074611ae9565b5b600061208385828601611ba3565b925050602061209485828601611ba3565b9150509250929050565b600080604083850312156120b5576120b4611ae9565b5b60006120c385828601611b37565b92505060206120d485828601611b6d565b9150509250929050565b60006020820190506120f36000830184611c47565b92915050565b600081519050919050565b600082825260208201905092915050565b6000819050602082019050919050565b60006121318383611d57565b60208301905092915050565b6000602082019050919050565b6000612155826120f9565b61215f8185612104565b935061216a83612115565b8060005b8381101561219b5781516121828882612125565b975061218d8361213d565b92505060018101905061216e565b5085935050505092915050565b600060208201905081810360008301526121c2818461214a565b905092915050565b600080604083850312156121e1576121e0611ae9565b5b60006121ef85828601611b6d565b925050602061220085828601611b6d565b9150509250929050565b6000602082840312156122205761221f611ae9565b5b600061222e84828501611b37565b91505092915050565b6101008201600082015161224e6000850182611d57565b5060208201516122616020850182611d66565b5060408201516122746040850182611d75565b5060608201516122876060850182611d75565b50608082015161229a6080850182611d75565b5060a08201516122ad60a0850182611d75565b5060c08201516122c060c0850182611d75565b5060e08201516122d360e0850182611d84565b50505050565b6000610100820190506122ef6000830184612237565b92915050565b600082825260208201905092915050565b7f50656e616c747920416d6f756e74206d757374206265206c657373207468616e60008201527f20636f6e74726163742062616c616e6365000000000000000000000000000000602082015250565b60006123626031836122f5565b915061236d82612306565b604082019050919050565b6000602082019050818103600083015261239181612355565b9050919050565b60006080820190506123ad6000830187611c38565b6123ba6020830186611c38565b6123c76040830185611c56565b6123d46060830184611c47565b95945050505050565b7f4e487b7100000000000000000000000000000000000000000000000000000000600052601160045260246000fd5b600061241782611b4c565b915061242283611b4c565b925082821015612435576124346123dd565b5b828203905092915050565b7f436f6e747261637420446f6573204e6f7420486176652042616c616e63650000600082015250565b6000612476601e836122f5565b915061248182612440565b602082019050919050565b600060208201905081810360008301526124a581612469565b9050919050565b6000819050919050565b60006124d16124cc6124c784611aee565b6124ac565b611aee565b9050919050565b60006124e3826124b6565b9050919050565b60006124f5826124d8565b9050919050565b612505816124ea565b82525050565b60006060820190506125206000830186611c38565b61252d60208301856124fc565b61253a6040830184611c56565b949350505050565b7f4e487b7100000000000000000000000000000000000000000000000000000000600052604160045260246000fd5b7f4e487b7100000000000000000000000000000000000000000000000000000000600052603260045260246000fd5b60006125ab82611b4c565b91507fffffffffffffffffffffffffffffffffffffffffffffffffffffffffffffffff82036125dd576125dc6123dd565b5b600182019050919050565b7f5472616e73616374696f6e20697320446f6e6521000000000000000000000000600082015250565b600061261e6014836122f5565b9150612629826125e8565b602082019050919050565b6000602082019050818103600083015261264d81612611565b9050919050565b7f5472616e73616374696f6e20697320446f6e6521205061796d656e74206e656560008201527f6420746f20626520636f6d706c65746564000000000000000000000000000000602082015250565b60006126b06031836122f5565b91506126bb82612654565b604082019050919050565b600060208201905081810360008301526126df816126a3565b9050919050565b60006126f182611b4c565b91506126fc83611b4c565b9250817fffffffffffffffffffffffffffffffffffffffffffffffffffffffffffffffff0483118215151615612735576127346123dd565b5b828202905092915050565b7f4e487b7100000000000000000000000000000000000000000000000000000000600052601260045260246000fd5b600061277a82611b4c565b915061278583611b4c565b92508261279557612794612740565b5b828204905092915050565b7f4d756c7469706c69636174696f6e206f766572666c6f77000000000000000000600082015250565b60006127d66017836122f5565b91506127e1826127a0565b602082019050919050565b60006020820190508181036000830152612805816127c9565b9050919050565b6000819050919050565b600061283161282c6128278461280c565b6124ac565b611b4c565b9050919050565b61284181612816565b82525050565b600060c08201905061285c6000830189611c38565b6128696020830188611c56565b6128766040830187611c56565b6128836060830186612838565b6128906080830185611c47565b61289d60a0830184611c47565b979650505050505050565b6000819050919050565b60006128cd6128c86128c3846128a8565b6124ac565b611b4c565b9050919050565b6128dd816128b2565b82525050565b600060c0820190506128f86000830189611c38565b6129056020830188611c56565b6129126040830187611c56565b61291f60608301866128d4565b61292c6080830185611c47565b61293960a0830184611c47565b979650505050505050565b7f5061796d656e7420616d6f756e74206d7573742062652067726561746572207460008201527f68616e207a65726f000000000000000000000000000000000000000000000000602082015250565b60006129a06028836122f5565b91506129ab82612944565b604082019050919050565b600060208201905081810360008301526129cf81612993565b9050919050565b7f4f776e65722063616e6e6f742073746f726520696e20697473206f776e000000600082015250565b6000612a0c601d836122f5565b9150612a17826129d6565b602082019050919050565b60006020820190508181036000830152612a3b816129ff565b9050919050565b6000612a4d82611b4c565b9150612a5883611b4c565b9250827fffffffffffffffffffffffffffffffffffffffffffffffffffffffffffffffff03821115612a8d57612a8c6123dd565b5b828201905092915050565b6000819050919050565b612ab3612aae82611b4c565b612a98565b82525050565b6000819050919050565b612ad4612acf82611b82565b612ab9565b82525050565b60008160601b9050919050565b6000612af282612ada565b9050919050565b6000612b0482612ae7565b9050919050565b612b1c612b1782611b0e565b612af9565b82525050565b6000612b2e8288612aa2565b602082019150612b3e8287612ac3565b602082019150612b4e8286612b0b565b601482019150612b5e8285612aa2565b602082019150612b6e8284612aa2565b6020820191508190509695505050505050565b6000612b8d8286612aa2565b602082019150612b9d8285612b0b565b601482019150612bad8284612ac3565b602082019150819050949350505050565b6000612bc982611b4c565b9150612bd483611b4c565b925082612be457612be3612740565b5b82820690509291505056fea264697066735822122044896a37fc50ca388ff4601c3729989ae676626bd17cf6944e4f02fef634400564736f6c634300080d0033",
    "linkReferences": {},
    "deployedLinkReferences": {}
}